S00D0000534C4156452E737265639C
S11300000C942A000C9447000C9447000C9447006D
S11300100C9447000C9447000C9447000C94470040
S11300200C9447000C9447000C9447000C94470030
S11300300C9447000C9447000C9447000C94470020
S11300400C9447000C9447000C9447000C94470010
S11300500C94470011241FBECFE5D8E0DEBFCDBF0E
S113006010E0A0E6B0E0E0E8F2E002C005900D92F6
S1130070A636B107D9F720E0A6E6B0E001C01D928C
S1130080A836B207E1F70E9417010C943E010C94C4
S11300900000C39A85E08A95F1F70000C39808959B
S11300A0CF93C82F8BB38F709C2F907F892B8BBBE2
S11300B0C1980E9449008FE193E00197F1F700C0D5
S11300C000008BB3282F2F7030E1C39FC00111248F
S11300D0822B8BBB0E9449008FE39FE10197F1F7CC
S11300E000C00000CF9108958FEF8ABB87BB88B30F
S11300F0847088BB8FE59AEE0197F1F700C0000089
S113010082E00E94500088E20E9450008CE00E942D
S1130110500086E00E94500081E00E9450008FE36E
S11301209FE10197F1F700C00000089581E00E946B
S113013050008FE39FE10197F1F700C0000080E8D1
S11301400E94500010926700109266000895CF93A9
S1130150C82F80916600909167008031910521F449
S113016080EC0E9450000BC0809749F40E949600D6
S113017080E80E94500010926700109266008BB3D2
S11301808F709C2F907F892B8BBBC19A0E94490052
S11301908FE193E00197F1F700C000008BB3282FA3
S11301A02F7030E1C39FC0011124822B8BBB0E94AE
S11301B049008FE39CE90197F1F700C000008091AA
S11301C066009091670001969093670080936600A3
S11301D08FE59AEE0197F1F700C00000CF910895E2
S11301E0CF93DF93EC018881882331F021960E941C
S11301F0A70089918111FBCFDF91CF9108958130C0
S113020031F4603158F480E80E945000089582303F
S113021029F4603218F480EC0E94500008956C9820
S11302206E9A08958FB9779BFECF8FB108950E947F
S113023074000E940F0180E690E00E94F00080E3C9
S11302400E941201D82FC1E301C0C0E360E082E044
S11302500E94FF008D2F0E94A7002FEF80E792E0FD
S1130260215080409040E1F700C000008C2F0E9494
S11302701201D82FCF5FCA3349F7E7CFF894FFCFE5
S1090280534C41564500F9
S9030000FC
