:100000000C942A000C9434000C9434000C943400AA
:100010000C9434000C9434000C9434000C94340090
:100020000C9434000C9434000C9434000C94340080
:100030000C9434000C9434000C9434000C94340070
:100040000C9434000C9434000C9434000C94340060
:100050000C94340011241FBECFE5D8E0DEBFCDBF25
:100060000E944E000C945A000C94000082B908952E
:1000700084EC86BF06B607FEFDCF01C081B181B119
:100080008036E1F784EC86BF06B607FEFDCF01C0DF
:1000900081B181B18038E1F783B108958FEF8ABBD8
:1000A00080ED90E00E94360081E090E00E943800F0
:0800B0008BBBFACFF894FFCFDF
:00000001FF
