S00D00004C616220332E73726563B5
S11300000C942A000C9434000C9434000C943400A6
S11300100C9434000C9434000C9434000C9434008C
S11300200C9434000C9434000C9434000C9434007C
S11300300C9434000C9434000C9434000C9434006C
S11300400C9434000C9434000C9434000C9434005C
S11300500C94340011241FBECFE5D8E0DEBFCDBF21
S11300600E9436000C944B000C9400008FEF84BB6C
S113007080E0982F9295907F9B6095BB2FEB37E2A1
S113008099E0215030409040E1F700C000008F5FBC
S10D00908A3079F7EDCFF894FFCF22
S9030000FC
