:020000040800F2
:1000000000280020A1020008F1020008F102000807
:10001000F1020008F1020008F102000800000000EF
:10002000000000000000000000000000F1020008D5
:10003000F102000800000000F1020008F1020008CF
:10004000F1020008F1020008F1020008F1020008C4
:10005000F1020008F1020008F50200081903000887
:100060003D0300086103000885030008F102000851
:10007000F1020008F1020008F1020008F102000894
:10008000F1020008F1020008F1020008F102000884
:10009000F1020008F1020008F1020008A9030008BB
:1000A000F1020008F1020008F1020008F102000864
:1000B000F1020008F1020008F1020008F102000854
:1000C000F1020008F1020008F10200082D0B0008FF
:1000D000890B0008C90E0008DD0E0008F10E0008AB
:1000E00051040008F102000800000000F1020008BD
:1000F000F1020008F1020008F1020008F102000814
:10010000F1020008F1020008F1020008F102000803
:10011000F1020008F1020008F1020008F1020008F3
:10012000F1020008F1020008F1020008F1020008E3
:1001300010B5054C237833B9044B13B10448AFF321
:1001400000800123237010BD00000020000000008B
:100150004C0F000808B5034B1BB103490348AFF32C
:10016000008008BD00000000040000204C0F0008C3
:1001700080B400AF0A4B9B69094A43F004039361C2
:10018000074B9B69064A43F008039361044B9B6944
:10019000034A43F00103936100BFBD4680BC704732
:1001A0000010024080B500AF01220D490D4800F05B
:1001B000F7FD00220A490B4800F0D6FD002210216D
:1001C000094800F089FA00220549084800F08EFB32
:1001D00001221021044800F07FFA00BF80BD00BF5B
:1001E0002800002000380140000801400030014094
:1001F00080B58CB000AFFFF7BBFF0123FB83022368
:10020000BB8300237B8300233B8310237B84002359
:10021000FB820423BB820023BB844FF440733B84E6
:100220000023BB621023BB85042387F82E300123F3
:1002300087F82F3007F12C031946154800F0CDF947
:1002400001221021124800F047FA07F11403194661
:10025000104800F0B3FA0F4800F072FB4FF4E1339E
:100260007B600023FB7220233B730B4B3B6100231D
:100270007B7200233B720023BB720C233B703B4616
:100280001946064800F0AEFC044800F0B7FDFEE752
:100290000008014000300140A5010008003801407D
:1002A0000D488546AFF300800C480D490D4A0023E8
:1002B00002E0D458C4500433C4188C42F9D30A4A1B
:1002C0000A4C002301E013600432A242FBD300F089
:1002D00019FEFFF78DFFFEE7002800200000002038
:1002E00000000020840F00080000002068000020AB
:1002F000FEE7000080B500AF054B5B69044A43F0A0
:1003000001035361034B1B68984700BF80BD00BFCA
:10031000000401402C00002080B500AF054B5B6954
:10032000044A43F002035361034B5B68984700BFE4
:1003300080BD00BF000401402C00002080B500AF4C
:10034000054B5B69044A43F004035361034B9B680C
:10035000984700BF80BD00BF000401402C00002072
:1003600080B500AF054B5B69044A43F00803536155
:10037000034BDB68984700BF80BD00BF000401400D
:100380002C00002080B500AF054B5B69044A43F0A8
:1003900010035361034B1B69984700BF80BD00BF2A
:1003A000000401402C00002080B500AF264B5B69A3
:1003B00003F02003002B08D0234B5B69224A43F053
:1003C00020035361214B5B6998471F4B5B6903F026
:1003D0004003002B08D01C4B5B691B4A43F04003D1
:1003E00053611A4B9B699847174B5B6903F0800375
:1003F000002B08D0144B5B69134A43F08003536110
:10040000124BDB699847104B5B6903F48073002B38
:1004100008D00D4B5B690C4A43F4807353610B4B5E
:100420001B6A9847084B5B6903F40073002B08D0E4
:10043000054B5B69044A43F400735361034B5B6AE9
:10044000984700BF80BD00BF000401402C00002081
:1004500080B500AF2D4B5B6903F48063002B08D09F
:100460002A4B5B69294A43F480635361284B9B6A9A
:100470009847264B5B6903F40063002B08D0234B9D
:100480005B69224A43F400635361214BDB6A98475E
:100490001E4B5B6903F48053002B08D01B4B5B6938
:1004A0001A4A43F480535361194B1B6B9847174BFF
:1004B0005B6903F40053002B08D0144B5B69134AAB
:1004C00043F400535361124B5B6B98470F4B5B69CE
:1004D00003F48043002B08D00C4B5B690B4A43F4B8
:1004E000804353610A4B9B6B9847084B5B6903F44D
:1004F0000043002B08D0054B5B69044A43F40043DA
:100500005361034BDB6B984700BF80BD0004014083
:100510002C00002080B483B000AF0346FB80FB8832
:10052000802B42D0802B11DC082B36D0082B06DC28
:10053000022B2ED0042B2ED0012B28D047E0202BCD
:100540002FD0402B2FD0102B29D040E0B3F5006FD7
:1005500033D0B3F5006F09DCB3F5007F29D0B3F5D4
:10056000806F28D0B3F5807F21D030E0B3F5005FF5
:1005700027D0B3F5005F03DCB3F5805F1FD026E022
:10058000B3F5804F1FD0B3F5004F1ED01FE00023FE
:100590001EE004231CE008231AE00C2318E01023BB
:1005A00016E0142314E0182312E01C2310E00023AB
:1005B0000EE004230CE008230AE00C2308E01023DB
:1005C00006E0142304E0182302E01C2300E00023CB
:1005D00018460C37BD4680BC704790B585B000AF5B
:1005E000786039600023BB600023FB733B681B8885
:1005F000FF2B01D87B6801E07B680433BB603B685C
:100600001B881846FFF786FF03461A460F239340C0
:10061000DA43BB681B681A40BB681A603B689B786A
:10062000072B0BD03B689B78062B07D03B689B7849
:10063000052B03D03B689B78042B0ED13B689B783D
:10064000043B9B005AB23B68DB785BB213435BB25E
:10065000DBB203F00F03FB732CE03B689B78012BAC
:1006600003D03B689B78002B07D13B689B789B00AD
:10067000DBB203F00F03FB731CE03B689B78082B95
:1006800002D10423FB7315E00823FB733B689B78BE
:10069000022B07D17B68DB683A6812881A437B68B3
:1006A000DA6007E07B68DB683A681288D2431A4058
:1006B0007B68DA60FC7B3B681B881846FFF72AFFE3
:1006C000034604FA03F2BB681B681A43BB681A604E
:1006D00000BF1437BD4690BD80B483B000AF7860D2
:1006E0000B467B8013467B707B78002B03D07A8887
:1006F0007B681A6102E07A887B685A6100BF0C3718
:10070000BD4680BC7047000080B400AF0A4B5B68F8
:100710009B0803F00303012B06D0012B02D3022B0D
:1007200004D005E0054B03E0054B01E0044BFFE777
:100730001846BD4680BC70470010024000127A0087
:100740000024F40080B500AFFFF7DEFF0146054B43
:100750005B681B0903F00F03034AD35C21FA03F320
:10076000184680BD001002406C0F000880B500AF35
:10077000FFF7E8FF0146054B5B681B0A03F0070320
:10078000034AD35C21FA03F3184680BD00100240EF
:10079000640F000880B500AFFFF7D4FF0146054B9A
:1007A0005B68DB0A03F00703034AD35C21FA03F317
:1007B000184680BD00100240640F000880B485B068
:1007C00000AF786039600023FB810023BB817B6828
:1007D000414A934209D1414A3B681360404B9B69AF
:1007E0003F4A43F4805393610CE07B683D4A934257
:1007F00008D13A4A3B685360394BDB69384A43F4C5
:100800008043D361FB8943F04003FB813B681A8836
:10081000FB891343FB813B685A88FB891343FB81A7
:100820003B689A88FB891343FB813B68DA88FB8924
:100830001343FB813B681A89FB891343FB813B68A7
:100840005A89FB891343FB813B689B89042B05D1A3
:100850003B689A89BB891343BB810EE03B689B8947
:10086000002B05D13B689A89BB891340BB8104E00A
:100870003B689A89FB891343FB813B68DA89FB89D2
:100880001343FB813B681B8A002B19D03B681A8AF3
:10089000BB891343BB817B680F4A934206D1124B3D
:1008A0001B68114A43F00803136009E07B680D4A96
:1008B000934205D10C4B1B680B4A43F010031360A5
:1008C000FA897B681A60BA897B685A6000BF14375E
:1008D000BD4680BC704700BF003001401C000020B6
:1008E000001002400038004004E100E080B485B010
:1008F00000AFF860B9601346FB71FB79002B06D19D
:1009000000BFFB689B6803F00203002BF9D0BB68B3
:100910001B881A46FB68DA60FB79002B06D100BF02
:10092000FB689B6803F00103002BF9D0FB68DB68D0
:100930009AB2BB681A8000BF1437BD4680BC7047AE
:1009400080B584B000AF78607B68734A934269D108
:10095000724B1B681B88042B34D1704B1B689B891E
:10096000042B0CD11023BB810623BB730123FB7323
:1009700007F10C0319466A48FFF72FFE00BF20233A
:10098000BB810623BB730123FB7307F10C031946DC
:100990006348FFF722FE4023BB810123BB7307F1AD
:1009A0000C0319465E48FFF718FE8023BB8106231F
:1009B000BB730123FB7307F10C0319465848FFF77B
:1009C0000CFEA4E0554B1B689B89002B09D110231A
:1009D000BB810123BB7307F10C0319465048FFF795
:1009E000FCFD2023BB810123BB7307F10C031946D7
:1009F0004B48FFF7F2FD4023BB810623BB73012365
:100A0000FB7307F10C0319464548FFF7E6FD802309
:100A1000BB810123BB7307F10C0319464048FFF764
:100A2000DCFD74E07B683F4A934270D13B4B5B68CE
:100A30001B88042B38D1394B5B689B89042B0DD163
:100A40004FF48053BB810623BB730123FB7307F173
:100A50000C0319463448FFF7C0FD00BF4FF40053A4
:100A6000BB810623BB730123FB7307F10C031946FB
:100A70002D48FFF7B2FD4FF48043BB810123BB73C8
:100A800007F10C0319462848FFF7A7FD4FF4004370
:100A9000BB810623BB730123FB7307F10C031946CB
:100AA0002148FFF79AFD32E01C4B5B689B89002BC5
:100AB0000AD14FF48053BB810123BB7307F10C03B0
:100AC00019461948FFF789FD4FF40053BB810123F4
:100AD000BB7307F10C0319461348FFF77EFD4FF473
:100AE0008043BB810623BB730123FB7307F10C0317
:100AF00019460D48FFF771FD4FF40043BB810123F8
:100B0000BB7307F10C0319460748FFF766FD00BFEA
:100B10001037BD4680BD00BF003001401C000020E2
:100B20000008014000380040000C014080B582B050
:100B300000AF134B9B685B0803F00103DAB23B790B
:100B400062F300033B710E4B9B6803F00103DAB2C2
:100B50003B7962F341033B71094B9B681B0903F02E
:100B60000103DAB23B7962F382033B71054B1B68E8
:100B70005B693879984700BF0837BD4680BD00BF24
:100B8000003001401C00002080B582B000AF134B44
:100B90009B685B0803F00103DAB23B7962F3000360
:100BA0003B710E4B9B6803F00103DAB23B7962F3B1
:100BB00041033B71094B9B681B0903F00103DAB247
:100BC0003B7962F382033B71054B5B685B69387963
:100BD000984700BF0837BD4680BD00BF00380040C1
:100BE0001C00002080B584B000AF78603960574A9F
:100BF0003B6813607B68564A934206D1554B9B690C
:100C0000544A43F48043936114E07B68524A934210
:100C100006D1504BDB694F4A43F40033D36109E0FE
:100C20007B684E4A934205D14A4BDB69494A43F4FB
:100C30008023D3617B68DB6843F400527B68DA6011
:100C40007B68DB683A6812781A437B68DA607B68F5
:100C5000DB683A68127A1A437B68DA607B68DB6883
:100C60003A68527A1A437B68DA607B681B693A6893
:100C7000927A1A437B681A617B685B693A68D27A18
:100C80001A437B685A617B68314A934203D1FFF76C
:100C900081FDF86002E0FFF769FDF8603B685B6882
:100CA0001B01FA68B2FBF3F31901FA6813469B00C3
:100CB00013449A001A443B685B689B00B2FBF3F252
:100CC0003B685B681B01F868B0FBF3F3642000FB32
:100CD00003F3D31A1B01224AA2FB03235B0903F08F
:100CE0000F030B43BB607B68BA689A603B681B7B51
:100CF000002B26D07B68DB683A68127B1A437B683E
:100D0000DA607B68124A934206D1164B1B68154A7B
:100D100043F02003136014E07B680F4A934206D12E
:100D2000104B1B680F4A43F04003136009E07B68D7
:100D30000A4A934205D10B4B1B680A4A43F08003D1
:100D4000136000BF1037BD4680BD00BF24000020E7
:100D500000380140001002400044004000480040BC
:100D60001F85EB5104E100E080B485B000AFF8606E
:100D7000B9601346FB71FB79002B06D100BFFB68FD
:100D80001B6803F08003002BF9D0BB681B88DAB224
:100D9000FB685A6000BF1437BD4680BC7047000036
:100DA00080B485B000AFF860B9601346FB71FB7981
:100DB000002B06D100BFFB681B6803F02003002B4B
:100DC000F9D00D4B1B685B7A002B07D1FB685B6881
:100DD0009BB2DBB29AB2BB681A8007E0FB685B6823
:100DE0009BB203F07F039AB2BB681A8000BF14372E
:100DF000BD4680BC704700BF2400002080B584B091
:100E000000AF78607B682B4A934218D14FF400738F
:100E1000BB810623BB730123FB7307F10C03194647
:100E20002548FFF7DAFB4FF48063BB810823BB73CF
:100E300007F10C0319462048FFF7CFFB36E07B682B
:100E40001E4A934216D10423BB810623BB730123A0
:100E5000FB7307F10C0319461748FFF7BEFB082385
:100E6000BB810823BB7307F10C0319461248FFF737
:100E7000B4FB1BE07B68124A934217D14FF48063A6
:100E8000BB810623BB730123FB7307F10C031946D7
:100E90000C48FFF7A2FB4FF40063BB810823BB7330
:100EA00007F10C0319460748FFF797FB00BF1037FF
:100EB000BD4680BD003801400008014000440040AC
:100EC00000480040000C014080B500AF024B1B6899
:100ED0001B69984700BF80BD2400002080B500AF8B
:100EE000024B1B681B69984700BF80BD240000208F
:100EF00080B500AF024B1B681B69984700BF80BDDF
:100F00002400002070B500250C4E0D4CA41BA4102D
:100F1000A54209D100F01AF800250A4E0A4CA41B7C
:100F2000A410A54205D170BD56F82530984701356B
:100F3000EEE756F8253098470135F2E77C0F0008B8
:100F40007C0F00087C0F0008800F0008F8B500BF78
:100F5000F8BC08BC9E467047F8B500BFF8BC08BC9A
:040F60009E467047F2
:100F64000000000001020304000000000000000073
:080F740001020304060708094D
:040F7C005501000813
:040F80003101000833
:04000005080002A14C
:00000001FF
