:100000000C942A000C9447000C9447000C94470071
:100010000C9447000C9447000C9447000C94470044
:100020000C9447000C9447000C9447000C94470034
:100030000C9447000C9447000C9447000C949801D2
:100040000C9447000C9447000C9447000C94470014
:100050000C94470011241FBECFE5D8E0DEBFCDBF12
:1000600010E0A0E6B0E0EEE7F9E002C005900D92E6
:10007000AA37B107D9F720E0AAE7B0E001C01D9286
:10008000A33EB207E1F70E9415010C94BD040C9445
:100090000000C39A85E08A95F1F70000C39808959F
:1000A000CF93C82F8BB38F709C2F907F892B8BBBE6
:1000B000C1980E9449008FE193E00197F1F700C0D9
:1000C00000008BB3282F2F7030E1C39FC001112493
:1000D000822B8BBB0E9449008FE39FE10197F1F7D0
:1000E00000C00000CF9108958FEF8ABB87BB88B313
:1000F000847088BB8FE59AEE0197F1F700C000008D
:1001000082E00E94500088E20E9450008CE00E9431
:10011000500086E00E94500081E00E9450008FE372
:100120009FE10197F1F700C000000895CF93C82F19
:100130008BB38F709C2F907F892B8BBBC19A0E94B1
:1001400049008FE193E00197F1F700C000008BB305
:10015000282F2F7030E1C39FC0011124822B8BBB4D
:100160000E9449008FE39CE90197F1F700C000006D
:1001700080917A0090917B00019690937B00809310
:100180007A008FE59AEE0197F1F700C00000CF9159
:100190000895CF93DF93EC018881882331F0219675
:1001A0000E94960089918111FBCFDF91CF91089534
:1001B000813031F4603158F480E80E945000089595
:1001C000823029F4603218F480EC0E9450000895C7
:1001D0000F931F93CF93DF93CDB7DEB727970FB65B
:1001E000F894DEBF0FBECDBF9F938F9382E690E061
:1001F0009F938F938E010F5F1F4F1F930F930E944A
:10020000D301C8010E94C9000F900F900F900F906A
:100210000F900F9027960FB6F894DEBF0FBECDBF9C
:10022000DF91CF911F910F91089578940E947400EF
:100230000E944B0181E790E00E94830160E081E031
:100240000E94D8008FE790E00E9459018FE790E06C
:100250000E94C90069E082E00E94D80080917C0081
:1002600090E00E94E80080917C008F5F8A3019F056
:1002700080937C0002C010927C0087E790E00E948F
:10028000C9002FEF83EC99E0215080409040E1F7C6
:1002900000C00000D3CF83E389B95998539A549A88
:1002A00008955D9BFECF8CB908955F9BFECF8CB106
:1002B0000895EF92FF921F93CF93DF937C010E94EA
:1002C0005501F70180830E945101F70180818D3033
:1002D00071F010E01F5FE701C10FD11D0E945501B1
:1002E00088830E94510188818D30A1F701C0E70108
:1002F0001882DF91CF911F91FF90EF900895569A49
:10030000089556980895CF93DF939C0190916100D2
:10031000913059F4E9010E947F0188818CB9D09312
:100320007E00C0937D0010926100DF91CF9108950F
:100330001F920F920FB60F9211242F933F934F935A
:100340005F936F937F938F939F93AF93BF93EF933D
:10035000FF9380916000E0917D00F0917E00E80FB6
:10036000F11D8081882339F08CB9809160008F5F06
:100370008093600007C081E08093600080936100FB
:100380000E948101FF91EF91BF91AF919F918F9159
:100390007F916F915F914F913F912F910F900FBE81
:1003A0000F901F901895AEE0B0E0E9EDF1E00C94ED
:1003B00094040D891E8986E08C831A8309838FEF4C
:1003C0009FE79E838D83AE01475E5F4F6F89788D77
:1003D000CE0101960E94F501EF81F885E00FF11F33
:1003E00010822E96E4E00C94B004ABE0B0E0EBEFAA
:1003F000F1E00C9486046C017B018A01FC011782F8
:100400001682838181FFCCC1CE0101963C01F601A9
:100410009381F70193FD859193FF81917F0188235B
:1004200009F4BAC1853239F493FD859193FF819126
:100430007F01853229F4B60190E00E94EC03E7CFFA
:10044000912C212C312CFFE1F315D8F08B3279F06F
:1004500038F4803279F08332A1F4232D20611DC05D
:100460008D3261F0803369F4232D216016C0832D15
:100470008260382EE32DE4603E2E2AC0F32DF86012
:100480001DC037FC2DC020ED280F2A3040F08E32E1
:10049000B9F436FC81C1232D2064322E19C036FEFA
:1004A00006C08AE0989E200D1124922E11C0EAE029
:1004B0002E9E200D1124222EF32DF0623F2E08C017
:1004C0008C3621F4832D8068382E02C0883641F4A2
:1004D000F70193FD859193FF81917F018111B3CF46
:1004E000982F9F7D9554933028F40C5F1F4F9FE306
:1004F00099830DC0833631F0833771F0833509F06D
:1005000059C021C0F801808189830E5F1F4F882464
:100510008394912C530113C02801F2E04F0E511C1B
:10052000F801A080B18036FE03C0692D70E002C0E2
:100530006FEF7FEFC5010E94E1034C018201F32DB3
:10054000FF773F2E16C0280122E0420E511CF80111
:10055000A080B18036FE03C0692D70E002C06FEF4D
:100560007FEFC5010E94D6034C01F32DF0683F2EAA
:10057000820133FC1BC0822D90E088169906B0F4EE
:10058000B60180E290E00E94EC032A94F4CFF501DA
:1005900037FC859137FE81915F01B60190E00E94A2
:1005A000EC0321102A9421E0821A9108811491040D
:1005B00071F7E8C0843611F0893641F5F80137FE4D
:1005C00007C060817181828193810C5F1F4F08C0D9
:1005D00060817181072E000C880B990B0E5F1F4FF5
:1005E000F32DFF763F2E97FF09C09095809570956B
:1005F00061957F4F8F4F9F4FF0683F2E2AE030E08C
:10060000A3010E942804882E861845C0853731F43E
:10061000232D2F7EB22E2AE030E025C0932D997F26
:10062000B92E8F36C1F018F4883579F0B5C080370F
:1006300019F0883721F0B0C0E92FE061BE2EB4FE7A
:100640000DC0FB2DF460BF2E09C034FE0AC0292F57
:100650002660B22E06C028E030E005C020E130E080
:1006600002C020E132E0F801B7FE07C0608171816D
:10067000828193810C5F1F4F06C06081718180E091
:1006800090E00E5F1F4FA3010E942804882E861859
:10069000FB2DFF773F2E36FE0DC0232D2E7FA22E81
:1006A000891458F434FE0BC032FC09C0832D8E7EB1
:1006B000A82E05C0B82CA32C03C0B82C01C0B92C9F
:1006C000A4FE0FC0FE01E80DF11D8081803321F4EE
:1006D0009A2D997EA92E09C0A2FE06C0B394B394A8
:1006E00004C08A2D867809F0B394A3FC11C0A0FE43
:1006F00006C0B21488F4280C922C9B180EC0B214B9
:1007000060F4B60180E290E00E94EC03B394F7CF6E
:10071000B21418F42B1802C0982C212CA4FE10C07F
:10072000B60180E390E00E94EC03A2FE17C0A1FC9A
:1007300003C088E790E002C088E590E0B6010CC0F5
:100740008A2D867859F0A1FE02C08BE201C080E2BA
:10075000A7FC8DE2B60190E00E94EC03891438F406
:10076000B60180E390E00E94EC039A94F7CF8A945C
:10077000F301E80DF11D8081B60190E00E94EC03C9
:100780008110F5CF222009F442CEB60180E290E03C
:100790000E94EC032A94F6CFF6018681978102C06D
:1007A0008FEF9FEF2B96E2E10C94A204FC010590E1
:1007B000615070400110D8F7809590958E0F9F1F63
:1007C0000895FC016150704001900110D8F78095A8
:1007D00090958E0F9F1F08950F931F93CF93DF93D4
:1007E000FB01238121FD03C08FEF9FEF2CC022FF6F
:1007F00016C046815781248135814217530744F43E
:10080000A081B1819D012F5F3F4F318320838C9365
:10081000268137812F5F3F4F3783268314C08B019A
:10082000EC01FB010084F185E02D0995892BE1F6AF
:10083000D80116968D919C911797019617969C93C7
:100840008E931697CE01DF91CF911F910F9108954E
:10085000FA01AA27283051F1203181F1E8946F93F1
:100860006E7F6E5F7F4F8F4F9F4FAF4FB1E03ED097
:10087000B4E03CD0670F781F891F9A1FA11D680F35
:10088000791F8A1F911DA11D6A0F711D811D911D68
:10089000A11D20D009F468943F912AE0269F1124DD
:1008A0003019305D3193DEF6CF010895462F477041
:1008B000405D4193B3E00FD0C9F7F6CF462F4F709C
:1008C000405D4A3318F0495D31FD4052419302D0FA
:1008D000A9F7EACFB4E0A6959795879577956795A0
:1008E000BA95C9F700976105710508959B01AC01A0
:1008F0000A2E06945795479537952795BA95C9F7C7
:10090000620F731F841F951FA01D08952F923F92A1
:100910004F925F926F927F928F929F92AF92BF920F
:10092000CF92DF92EF92FF920F931F93CF93DF93BB
:10093000CDB7DEB7CA1BDB0B0FB6F894DEBF0FBE18
:10094000CDBF09942A88398848885F846E847D8465
:100950008C849B84AA84B984C884DF80EE80FD8067
:100960000C811B81AA81B981CE0FD11D0FB6F894DD
:0E097000DEBF0FBECDBFED010895F894FFCF9E
:10097E0001012564002D00257325642E2530346475
:0A098E000041686D65640020000060
:00000001FF
