:020000040800F2
:10000000002800206D030008BD030008BD030008A0
:10001000BD030008BD030008BD0300080000000088
:10002000000000000000000000000000BD03000808
:10003000BD03000800000000BD030008BD03000868
:10004000BD030008BD030008BD030008BD03000890
:10005000BD030008BD030008BD030008BD03000880
:10006000BD030008BD030008BD030008BD03000870
:10007000BD030008BD030008BD030008BD03000860
:10008000BD030008BD030008BD030008BD03000850
:10009000BD030008BD030008BD030008BD03000840
:1000A000BD030008BD030008BD030008BD03000830
:1000B000BD030008BD030008BD030008BD03000820
:1000C000BD030008BD030008BD030008BD03000810
:1000D000BD030008BD030008BD030008BD03000800
:1000E000BD030008BD03000800000000BD030008B8
:1000F000BD030008BD030008BD030008BD030008E0
:10010000BD030008BD030008BD030008BD030008CF
:10011000BD030008BD030008BD030008BD030008BF
:10012000BD030008BD030008BD030008BD030008AF
:1001300010B5054C237833B9044B13B10448AFF321
:1001400000800123237010BD20000020000000006B
:10015000680C000808B5034B1BB103490348AFF313
:10016000008008BD0000000024000020680C00088A
:1001700080B400AF074B9B69064A43F004039361C8
:10018000044B9B69034A43F00803936100BFBD46DB
:1001900080BC70470010024080B582B000AF4FF4C1
:1001A0000073BB800423BB710123FB713B1D194607
:1001B000274800F074FC4FF48063BB800423BB71BC
:1001C0000123FB713B1D1946214800F068FC4FF4E8
:1001D0000063BB800423BB710123FB713B1D1946E7
:1001E0001B4800F05CFC4FF48053BB800423BB71C0
:1001F0000123FB713B1D1946154800F050FC4FF4DC
:100200000053BB800423BB710123FB713B1D1946C6
:100210000F4800F044FC4FF48043BB800423BB71C3
:100220000123FB713B1D1946094800F038FC4FF4CF
:100230000043BB800423BB710123FB713B1D1946A6
:10024000034800F02CFC00BF0837BD4680BD00BF4E
:10025000000C014080B485B000AF78600023FB60E3
:100260000BE00023BB6002E0BB680133BB60BB68EE
:10027000FE2BF9D9FB680133FB60FA687B689A4270
:10028000EFD300BF1437BD4680BC704780B588B03F
:1002900000AFFFF76DFF00F0EFF92F4800F04EFBC5
:1002A0004FF49670FFF7D6FF00F0DEFAFFF774FF09
:1002B0002A4A07F1100307CA03C31A800233120C3B
:1002C0001A70274A3B1D07CA03C31A800233120C57
:1002D0001A700023FB771BE0FB7F07F12002134419
:1002E00013F8103C184600F0D1FAFB7F07F120020A
:1002F000134413F81C3C9BB25B029BB2194619488D
:1003000000F07FFCC820FFF7A5FFFB7F0133FB77E0
:10031000FB7F0A2BE0D900F0A7FA00F051F8124851
:1003200000F00CFB1E20FFF795FF00F09DFA00F097
:10033000BDF80346BB77BB7F212B02D04E2B08D0E4
:1003400002E000F091FA05E0BB7F184600F09EFA4B
:1003500000E000BFEBE700BF800C0008940C000831
:10036000A00C0008000C0140840C00080D488546D4
:10037000AFF300800C480D490D4A002302E0D45829
:10038000C4500433C4188C42F9D30A4A0A4C0023DF
:1003900001E013600432A242FBD300F041FCFFF7FE
:1003A00075FFFEE70028002000000020200000204C
:1003B000B40C00082000002044000020FEE70000EC
:1003C00080B500AF374B01221A80364B04229A7059
:1003D000344B0122DA703349334800F060FB314B73
:1003E00002221A802F4B04229A702E4B0122DA70BF
:1003F0002C492D4800F053FB2A4B08221A80294B28
:1004000004229A70274B0122DA702649264800F010
:1004100046FB244B10221A80224B04229A70214B57
:100420000122DA701F49204800F039FB1D4B2022C1
:100430001A801C4B04229A701A4B0122DA70194957
:10044000194800F02CFB174B40221A80154B042250
:100450009A70144B0122DA701249134800F01FFB06
:10046000104B80221A800F4B04229A700D4B0122F0
:10047000DA700C490C4800F012FB0A4B4FF4807202
:100480001A80084B04229A70064B0122DA70054943
:10049000054800F004FBFF21034800F0B2FB00BF59
:1004A00080BD00BF40000020000C014080B582B03C
:1004B00000AF00237B60B4E05E4B1B689BB201225F
:1004C00019465D4800F086FB5A4B5B689BB20122DF
:1004D0001946594800F07EFB564B9B689BB201229F
:1004E0001946554800F076FB524BDB689BB201225F
:1004F0001946514800F06EFB4E4A7B6852F8233093
:100500009BB2002219464C4800F064FB00233B607C
:1005100080E04A4A3B6852F823309BB2194646486D
:1005200000F041FB0346002B71D100BF434A3B68FA
:1005300052F823309BB219463F4800F034FB034683
:10054000002BF3D07B68032B61D801A252F823F073
:100550006105000889050008B1050008D9050008F3
:100560003B68002B01D1372360E03B68012B01D1B0
:1005700034235BE03B68022B01D1312356E03B681A
:10058000032B3DD1212351E03B68002B01D13823BF
:100590004CE03B68012B01D1352347E03B68022B3F
:1005A00001D1322342E03B68032B2BD130233DE0C5
:1005B0003B68002B01D1392338E03B68012B01D186
:1005C000362333E03B68022B01D133232EE03B6816
:1005D000032B19D13D2329E03B68002B01D12F23A8
:1005E00024E03B68012B01D12A231FE03B68022B4A
:1005F00001D12D231AE03B68032B07D12B2315E0F3
:1006000000BF04E000BF02E000BF00E000BF3B68A5
:1006100001333B603B68032B7FF77BAF7B68013383
:100620007B607B68032B7FF747AF4E231846083764
:10063000BD4680BD10000020000C014000000020DD
:1006400080B485B000AF78600023FB600BE000232E
:10065000BB6002E0BB680133BB60BB68FE2BF9D90D
:10066000FB680133FB60FA687B689A42EFD300BFF6
:100670001437BD4680BC704780B500AF574B4FF470
:1006800080721A80554B04229A70544B0122DA7002
:100690005249534800F003FA504B4FF400721A804D
:1006A0004E4B04229A704D4B0122DA704B494C4854
:1006B00000F0F5F9494B4FF480621A80474B042251
:1006C0009A70464B0122DA704449454800F0E7F938
:1006D00000224FF40071424800F07CFA3F4B0122A7
:1006E0001A803E4B04229A703C4B0122DA703B493F
:1006F0003B4800F0D4F9394B02221A80374B0422D0
:100700009A70364B0122DA703449354800F0C7F947
:10071000324B04221A80314B04229A702F4B012253
:10072000DA702E492E4800F0BAF92C4B08221A80B4
:100730002A4B04229A70294B0122DA702749284853
:1007400000F0ADF9254B10221A80244B04229A7038
:10075000224B0122DA702149214800F0A0F91F4BF9
:1007600020221A801D4B04229A701C4B0122DA7041
:100770001A491B4800F093F9184B40221A80174B76
:1007800004229A70154B0122DA701449144800F0C3
:1007900086F9124B80221A80104B04229A700F4B5C
:1007A0000122DA700D490E4800F079F90F20FFF7A9
:1007B00047FF022000F016F8282000F013F80C2064
:1007C00000F010F8062000F00DF8012000F00AF803
:1007D0000220FFF735FF00BF80BD00BF40000020B2
:1007E0000008014080B582B000AF0346FB711D4B8D
:1007F000DB689BB223F0F0039AB2FB799BB203F063
:10080000F0039BB213439BB21946164800F0F9F966
:1008100000224FF48071134800F0DCF900224FF4FD
:100820000071104800F0D6F900F09CF80220FFF7A4
:1008300007FF0C4BDB689BB223F0F0039AB2FB7905
:100840009BB21B019BB213439BB21946054800F0B3
:10085000D8F900F087F80220FFF7F2FE00BF083752
:10086000BD4680BD0008014080B500AF0120FFF704
:10087000B9FF0220FFF7E4FE8020FFF7B3FF024B31
:1008800000221A6000BF80BD3C00002080B582B00D
:1008900000AF0346FB71274B1B68102B04D10021CE
:1008A000022000F075F80CE0224B1B68202B08D1C9
:1008B000FFF7DAFF0021012000F06AF81D4B00224B
:1008C0001A601D4BDB689BB223F0F0039AB2FB79F0
:1008D0009BB203F0F0039BB213439BB21946164838
:1008E00000F08FF901224FF48071134800F072F983
:1008F00000F038F8C820FFF7A3FE0F4BDB689BB26F
:1009000023F0F0039AB2FB799BB21B019BB2134315
:100910009BB21946084800F074F90120FFF790FED9
:1009200000F020F86420FFF78BFE00BF0837BD46BB
:1009300080BD00BF3C0000200008014080B582B0AF
:1009400000AF786006E07B685A1C7A601B78184616
:10095000FFF79CFF7B681B78002BF4D100BF0837A2
:10096000BD4680BD80B500AF01224FF480610748CD
:1009700000F030F90220FFF763FE00224FF480619F
:10098000024800F027F900BF80BD00BF0008014009
:1009900080B582B000AF03460A46FB711346BB71B7
:1009A000FB79012B08D1BB790F2B05D8BB79803B94
:1009B000DBB21846FFF716FFFB79022B08D1BB7993
:1009C0000F2B05D8BB79403BDBB21846FFF70AFF77
:1009D00000BF0837BD4680BD80B483B000AF03467A
:1009E000FB80FB88802B42D0802B11DC082B36D07B
:1009F000082B06DC022B2ED0042B2ED0012B28D066
:100A000047E0202B2FD0402B2FD0102B29D040E0B7
:100A1000B3F5006F33D0B3F5006F09DCB3F5007F99
:100A200029D0B3F5806F28D0B3F5807F21D030E096
:100A3000B3F5005F27D0B3F5005F03DCB3F5805F4B
:100A40001FD026E0B3F5804F1FD0B3F5004F1ED066
:100A50001FE000231EE004231CE008231AE00C23FF
:100A600018E0102316E0142314E0182312E01C23CE
:100A700010E000230EE004230CE008230AE00C231E
:100A800008E0102306E0142304E0182302E01C23EE
:100A900000E0002318460C37BD4680BC704790B577
:100AA00085B000AF786039600023BB600023FB7322
:100AB0003B681B88FF2B01D87B6801E07B6804330F
:100AC000BB603B681B881846FFF786FF03461A4643
:100AD0000F239340DA43BB681B681A40BB681A6057
:100AE0003B689B78072B0BD03B689B78062B07D085
:100AF0003B689B78052B03D03B689B78042B11D176
:100B00003B689B78043B9B00002B03D13B68DB7860
:100B1000002B01D0012300E00023DBB203F00F0320
:100B2000FB732EE03B689B78012B03D03B689B78DE
:100B3000002B09D13B689B789B00002B14BF01233D
:100B40000023DBB2FB731CE03B689B78082B02D1CF
:100B50000123FB7315E00123FB733B689B78022B99
:100B600007D17B68DB683A6812881A437B68DA60D1
:100B700007E07B68DB683A681288D2431A407B68DA
:100B8000DA60FC7B3B681B881846FFF725FF0346AD
:100B900004FA03F2BB681B681A43BB681A6000BF03
:100BA0001437BD4690BD80B485B000AF78600B4669
:100BB0007B807B689A687B881340002B02D00123DE
:100BC000FB7301E00023FB73FB7B18461437BD4623
:100BD00080BC704780B483B000AF78600B467B80E8
:100BE00013467B707B78002B03D07A887B681A6170
:100BF00002E07A887B685A6100BF0C37BD4680BC32
:100C0000704780B483B000AF78600B467B807A88F1
:100C10007B68DA6000BF0C37BD4680BC70470000BF
:100C200070B500250C4E0D4CA41BA410A54209D193
:100C300000F01AF800250A4E0A4CA41BA410A54285
:100C400005D170BD56F8253098470135EEE756F8C6
:100C5000253098470135F2E7AC0C0008AC0C0008D1
:100C6000AC0C0008B00C0008F8B500BFF8BC08BC1C
:100C70009E467047F8B500BFF8BC08BC9E4670475A
:100C8000484559004B65797061642069732072652D
:100C900061647900303132333435363738393000D9
:0C0CA00040792430191202780010400046
:040CAC0055010008E6
:040CB0003101000806
:100CB4000100000002000000080000001000000015
:100CC400200000004000000080000000000100003F
:040000050800036D7F
:00000001FF
