S00D00004C616220332E73726563B5
S11300000C942A000C9436000C9454000C94720046
S11300100C9434000C9434000C9434000C9434008C
S11300200C9434000C9434000C9434000C9434007C
S11300300C9434000C9434000C9434000C9434006C
S11300400C9434000C9434000C9434000C9434005C
S11300500C94340011241FBECFE5D8E0DEBFCDBF21
S11300600E9490000C94B0000C9400001F920F9218
S11300700FB60F9211242F938F939F9382B393B350
S1130080806293BB82BB2FEF82E597E021508040D2
S11300909040E1F700C000009F918F912F910F9045
S11300A00FBE0F901F9018951F920F920FB60F92CC
S11300B011242F938F939F9382B393B3806493BB44
S11300C082BB2FEF82E597E0215080409040E1F71A
S11300D000C000009F918F912F910F900FBE0F9041
S11300E01F9018951F920F920FB60F9211242F9301
S11300F08F939F9382B393B3806893BB82BB2FEF9C
S113010082E597E0215080409040E1F700C0000074
S11301109F918F912F910F900FBE0F901F90189564
S113012081B392B3806E92BB81BB85B796B7816071
S113013096BF85BF85B796B78C6096BF85BF84B7D9
S113014095B78F7B95BF84BF8BB79CB7806E9CBFE0
S11301508BBF789482B393B38F7193BB82BBFACF76
S1070160F894FFCF3D
S9030000FC
