:100000000C942A000C9447000C9447000C94470071
:100010000C9447000C9447000C9447000C94470044
:100020000C9447000C9447000C9447000C94470034
:100030000C9447000C9447000C9447000C94470024
:100040000C9447000C9447000C9447000C94470014
:100050000C94470011241FBECFE5D8E0DEBFCDBF12
:1000600010E0A0E6B0E0E2EDFEE002C005900D92E7
:10007000A639B107D9F720E0A6E9B0E001C01D928A
:10008000A839B207E1F70E9493020C9467070C9419
:10009000000081B3807F81BB81B3806F81BB8FEF14
:1000A00082BB0895EF92FF920F931F93CF93DF933C
:1000B000C0E6D0E060E070E0DE0141E050E092B3E5
:1000C000FA010C9002C0EE0FFF1F0A94E2F79A01AA
:1000D00012960C90129702C0220F331F0A94E2F777
:1000E0002E2B822F892B9A0114960C90149702C004
:1000F000220F331F0A94E2F7282BCA0116960C90A0
:10010000169702C0880F991F0A94E2F7822B82BBD0
:1001100092B3888122969A0102C0220F331F8A95DA
:10012000E2F7822F8095892382BBE8E6F0E0EE2497
:10013000E394F12C00E010E005C00F5F1F4F8FEF3C
:10014000E81AF80A80B32081329690E0022E02C0AD
:10015000959587950A94E2F780FD50C0CA0102C0C8
:10016000880F991F2A95E2F79C0180B390E08223C3
:100170009323892BD1F361307105C9F024F4611503
:10018000710541F03BC062307105F1F063307105DB
:1001900041F134C001151105F1F101301105E9F10A
:1001A00002301105E1F10330110541F53AC00115A6
:1001B0001105C9F101301105C1F102301105B9F184
:1001C00003301105D9F435C001151105A1F1013035
:1001D000110599F10230110591F10330110571F407
:1001E00030C00115110579F10130110571F10230AE
:1001F000110569F10330110571F52BC094E0E91682
:10020000F1040CF49ACF6F5F7F4F6430710509F0F1
:1002100056CF8EE426C087E324C084E322C081E366
:1002200020C081E21EC088E31CC085E31AC082E3BF
:1002300018C080E316C089E314C086E312C083E3CC
:1002400010C08DE30EC08FE20CC08AE20AC08DE2BE
:1002500008C08BE206C084E0E816F1040CF46DCF10
:100260008EE4DF91CF911F910F91FF90EF90089551
:10027000C39A85E08A95F1F70000C3980895CF935B
:10028000C82F8BB38F709C2F907F892B8BBBC1980D
:100290000E9438018FE193E00197F1F700C0000060
:1002A0008BB3282F2F7030E1C39FC0011124822B04
:1002B0008BBB0E9438018FE39FE10197F1F700C0EB
:1002C0000000CF9108958FEF8ABB87BB88B38470FD
:1002D00088BB8FE59AEE0197F1F700C0000082E03D
:1002E0000E943F0188E20E943F018CE00E943F0192
:1002F00086E00E943F0181E00E943F018FE39FE181
:100300000197F1F700C00000089581E00E943F01CD
:100310008FE39FE10197F1F700C0000080E80E94A1
:100320003F0110929700109296000895CF93C82F26
:1003300080919600909197008031910521F480EC96
:100340000E943F010BC0809749F40E94850180E81C
:100350000E943F0110929700109296008BB38F700D
:100360009C2F907F892B8BBBC19A0E9438018FE113
:1003700093E00197F1F700C000008BB3282F2F7096
:1003800030E1C39FC0011124822B8BBB0E94380136
:100390008FE39CE90197F1F700C00000809196007F
:1003A00090919700019690939700809396008FE527
:1003B0009AEE0197F1F700C00000CF910895CF9316
:1003C000DF93EC018881882331F021960E94960109
:1003D00089918111FBCFDF91CF9108950F931F93E6
:1003E000CF93DF93CDB7DEB727970FB6F894DEBF74
:1003F0000FBECDBF9F938F9380E790E09F938F9325
:100400008E010F5F1F4F1F930F930E947D04C80141
:100410000E94DF010F900F900F900F900F900F90A0
:1004200027960FB6F894DEBF0FBECDBFDF91CF91F8
:100430001F910F9108958F929F92AF92BF92CF928A
:10044000DF92EF92FF920F931F93CF93DF93CDB77D
:10045000DEB760970FB6F894DEBF0FBECDBF6B015D
:100460007C0120E030E0A9010E942303882364F08E
:1004700020E030E0A901C701B6010E9423038823D0
:1004800054F400E910E002C003E710E0F7FAF0943A
:10049000F7F8F09402C000E910E0C701B6010E942D
:1004A00028034B015C01072E000C880B990B0E945E
:1004B00060039B01AC01C701B6010E94B60220E0B7
:1004C00030E44CE156E40E9410040E9428037F931C
:1004D0006F939F928F921F930F9385E790E09F9366
:1004E0008F938E010F5F1F4F1F930F930E947D0408
:1004F000C8010E94DF010FB6F894DEBF0FBECDBF6A
:1005000060960FB6F894DEBF0FBECDBFDF91CF91DE
:100510001F910F91FF90EF90DF90CF90BF90AF9021
:100520009F908F9008950E9463010E9449008FE779
:1005300090E00E94DF018EED95E00E94EE0181E9DE
:1005400090E00E94DF0164E17EEA8FE991E40E947D
:100550001B020E945200813219F08E34D1F303C085
:100560000E948501F6CF0E949601F3CF5058BB2719
:10057000AA270E94CE020C94D6030E94C80338F02A
:100580000E94CF0320F039F49F3F19F426F40C9415
:10059000C5030EF4E095E7FB0C94BF03E92F0E941E
:1005A000E70358F3BA17620773078407950720F02B
:1005B00079F4A6F50C9409040EF4E0950B2EBA2FED
:1005C000A02D0B01B90190010C01CA01A001112459
:1005D000FF27591B99F0593F50F4503E68F11A1605
:1005E000F040A22F232F342F4427585FF3CF469596
:1005F00037952795A795F0405395C9F77EF41F16B8
:10060000BA0B620B730B840BBAF09150A1F0FF0F81
:10061000BB1F661F771F881FC2F70EC0BA0F621F6D
:10062000731F841F48F4879577956795B795F7955D
:100630009E3F08F0B0CF9395880F08F09927EE0FF2
:100640009795879508950E949B0308F481E008958B
:100650000E942F036894B1110C940A0408950E941B
:10066000EF0388F09F5798F0B92F9927B751B0F052
:10067000E1F0660F771F881F991F1AF0BA95C9F726
:1006800014C0B13091F00E940904B1E008950C94B7
:100690000904672F782F8827B85F39F0B93FCCF36A
:1006A000869577956795B395D9F73EF490958095A3
:1006B000709561957F4F8F4F9F4F0895E89409C0C3
:1006C00097FB3EF490958095709561957F4F8F4F85
:1006D0009F4F9923A9F0F92F96E9BB279395F6959B
:1006E000879577956795B795F111F8CFFAF4BB0F19
:1006F00011F460FF1BC06F5F7F4F8F4F9F4F16C07D
:10070000882311F096E911C0772321F09EE8872F06
:10071000762F05C0662371F096E8862F70E060E0C2
:100720002AF09A95660F771F881FDAF7880F96953B
:10073000879597F90895990F0008550FAA0BE0E8DF
:10074000FEEF16161706E807F907C0F01216130693
:10075000E407F50798F0621B730B840B950B39F4D3
:100760000A2661F0232B242B252B21F408950A2639
:1007700009F4A140A6958FEF811D811D089597F979
:100780009F6780E870E060E008959FEF80EC089537
:1007900000240A9416161706180609060895002460
:1007A0000A9412161306140605060895092E0394DA
:1007B000000C11F4882352F0BB0F40F4BF2B11F44E
:1007C00060FF04C06F5F7F4F8F4F9F4F089557FDAD
:1007D0009058440F551F59F05F3F71F04795880FAF
:1007E00097FB991F61F09F3F79F087950895121646
:1007F00013061406551FF2CF4695F1DF08C01616F2
:1008000017061806991FF1CF8695710561050894A2
:100810000895E894BB2766277727CB0197F90895B9
:100820000E9423040C94D6030E94C80338F00E944F
:10083000CF0320F0952311F00C94BF030C94C50353
:1008400011240C940A040E94E70370F3959FC1F3EE
:10085000950F50E0551F629FF001729FBB27F00D6E
:10086000B11D639FAA27F00DB11DAA1F649F6627C3
:10087000B00DA11D661F829F2227B00DA11D621F12
:10088000739FB00DA11D621F839FA00D611D221FCC
:10089000749F3327A00D611D231F849F600D211DB0
:1008A000822F762F6A2F11249F5750409AF0F1F033
:1008B00088234AF0EE0FFF1FBB1F661F771F881F9C
:1008C00091505040A9F79E3F510580F00C94BF0312
:1008D0000C940A045F3FE4F3983ED4F38695779531
:1008E0006795B795F795E7959F5FC1F7FE2B880F42
:1008F000911D9695879597F90895AEE0B0E0E3E8ED
:10090000F4E00C943E070D891E8986E08C831A83DF
:1009100009838FEF9FE79E838D83AE01475E5F4F14
:100920006F89788DCE0101960E949F04EF81F88532
:10093000E00FF11F10822E96E4E00C945A07ABE012
:10094000B0E0E5EAF4E00C9430076C017B018A0129
:10095000FC0117821682838181FFCCC1CE010196F2
:100960003C01F6019381F70193FD859193FF8191FD
:100970007F01882309F4BAC1853239F493FD85914A
:1009800093FF81917F01853229F4B60190E00E94A6
:100990009606E7CF912C212C312CFFE1F315D8F0EE
:1009A0008B3279F038F4803279F08332A1F4232D40
:1009B00020611DC08D3261F0803369F4232D2160E8
:1009C00016C0832D8260382EE32DE4603E2E2AC0AF
:1009D000F32DF8601DC037FC2DC020ED280F2A3004
:1009E00040F08E32B9F436FC81C1232D2064322EC2
:1009F00019C036FE06C08AE0989E200D1124922E62
:100A000011C0EAE02E9E200D1124222EF32DF0625B
:100A10003F2E08C08C3621F4832D8068382E02C00A
:100A2000883641F4F70193FD859193FF81917F0111
:100A30008111B3CF982F9F7D9554933028F40C5F8C
:100A40001F4F9FE399830DC0833631F0833771F0D8
:100A5000833509F059C021C0F801808189830E5F78
:100A60001F4F88248394912C530113C02801F2E076
:100A70004F0E511CF801A080B18036FE03C0692DD5
:100A800070E002C06FEF7FEFC5010E948B064C0142
:100A90008201F32DFF773F2E16C0280122E0420E7F
:100AA000511CF801A080B18036FE03C0692D70E0B2
:100AB00002C06FEF7FEFC5010E9480064C01F32D4D
:100AC000F0683F2E820133FC1BC0822D90E0881617
:100AD0009906B0F4B60180E290E00E9496062A944E
:100AE000F4CFF50137FC859137FE81915F01B601A6
:100AF00090E00E94960621102A9421E0821A910823
:100B00008114910471F7E8C0843611F0893641F5FB
:100B1000F80137FE07C060817181828193810C5F8B
:100B20001F4F08C060817181072E000C880B990B44
:100B30000E5F1F4FF32DFF763F2E97FF09C0909554
:100B40008095709561957F4F8F4F9F4FF0683F2E36
:100B50002AE030E0A3010E94D206882E861845C004
:100B6000853731F4232D2F7EB22E2AE030E025C0C8
:100B7000932D997FB92E8F36C1F018F4883579F00E
:100B8000B5C0803719F0883721F0B0C0E92FE06197
:100B9000BE2EB4FE0DC0FB2DF460BF2E09C034FE86
:100BA0000AC0292F2660B22E06C028E030E005C01A
:100BB00020E130E002C020E132E0F801B7FE07C0DA
:100BC00060817181828193810C5F1F4F06C06081BB
:100BD000718180E090E00E5F1F4FA3010E94D2065A
:100BE000882E8618FB2DFF773F2E36FE0DC0232D55
:100BF0002E7FA22E891458F434FE0BC032FC09C09B
:100C0000832D8E7EA82E05C0B82CA32C03C0B82C33
:100C100001C0B92CA4FE0FC0FE01E80DF11D8081BA
:100C2000803321F49A2D997EA92E09C0A2FE06C018
:100C3000B394B39404C08A2D867809F0B394A3FCCE
:100C400011C0A0FE06C0B21488F4280C922C9B1888
:100C50000EC0B21460F4B60180E290E00E949606E5
:100C6000B394F7CFB21418F42B1802C0982C212C8F
:100C7000A4FE10C0B60180E390E00E949606A2FE9A
:100C800017C0A1FC03C088E790E002C088E590E0AF
:100C9000B6010CC08A2D867859F0A1FE02C08BE205
:100CA00001C080E2A7FC8DE2B60190E00E949606AA
:100CB000891438F4B60180E390E00E9496069A9475
:100CC000F7CF8A94F301E80DF11D8081B60190E021
:100CD0000E9496068110F5CF222009F442CEB6017B
:100CE00080E290E00E9496062A94F6CFF601868173
:100CF000978102C08FEF9FEF2B96E2E10C944C0797
:100D0000FC010590615070400110D8F780959095D6
:100D10008E0F9F1F0895FC016150704001900110DB
:100D2000D8F7809590958E0F9F1F08950F931F936E
:100D3000CF93DF93FB01238121FD03C08FEF9FEF52
:100D40002CC022FF16C0468157812481358142176D
:100D5000530744F4A081B1819D012F5F3F4F318340
:100D600020838C93268137812F5F3F4F37832683E3
:100D700014C08B01EC01FB010084F185E02D099585
:100D8000892BE1F6D80116968D919C9117970196C3
:100D900017969C938E931697CE01DF91CF911F915A
:100DA0000F910895FA01AA27283051F1203181F1DD
:100DB000E8946F936E7F6E5F7F4F8F4F9F4FAF4F63
:100DC000B1E03ED0B4E03CD0670F781F891F9A1F76
:100DD000A11D680F791F8A1F911DA11D6A0F711D2A
:100DE000811D911DA11D20D009F468943F912AE036
:100DF000269F11243019305D3193DEF6CF0108951E
:100E0000462F4770405D4193B3E00FD0C9F7F6CF4E
:100E1000462F4F70405D4A3318F0495D31FD405216
:100E2000419302D0A9F7EACFB4E0A69597958795AC
:100E300077956795BA95C9F700976105710508958B
:100E40009B01AC010A2E0694579547953795279537
:100E5000BA95C9F7620F731F841F951FA01D0895CF
:100E60002F923F924F925F926F927F928F929F92BA
:100E7000AF92BF92CF92DF92EF92FF920F931F93A8
:100E8000CF93DF93CDB7DEB7CA1BDB0B0FB6F89459
:100E9000DEBF0FBECDBF09942A88398848885F8499
:100EA0006E847D848C849B84AA84B984C884DF800A
:100EB000EE80FD800C811B81AA81B981CE0FD11DEE
:100EC0000FB6F894DEBF0FBECDBFED010895F894C4
:020ED000FFCF52
:100ED20004000500060007000000010002000300F4
:100EE2002564002D00257325642E253034640059B5
:100EF2004F5553534546204144454C203A2020202B
:060F020000203A2000006F
:00000001FF
