:100000000C942A000C9434000C9434000C943400AA
:100010000C9434000C9434000C9434000C94340090
:100020000C9434000C9434000C9434000C94340080
:100030000C9434000C9434000C9434000C94340070
:100040000C9434000C9434000C9434000C94340060
:100050000C94340011241FBECFE5D8E0DEBFCDBF25
:100060000E9440000C9467000C9400008EE081BD5B
:1000700081B58E7F81BD089588E181BD11BC089551
:1000800084B3816084BB2FEF84E39CE021508040E7
:100090009040E1F700C000000E9436002FEF84E39B
:1000A0009CE0215080409040E1F700C0000095B3F3
:1000B00081E0892785BB2FEF88EF95E121508040B3
:1000C0009040E1F700C000000E943C00E5CFF894AA
:0200D000FFCF60
:00000001FF
