:100000000C942A000C943F000C943F000C943F0089
:100010000C943F000C943F000C943F000C943F0064
:100020000C943F000C943F000C943F000C943F0054
:100030000C943F000C943F000C943F000C943F0044
:100040000C943F000C943F000C943F000C943F0034
:100050000C943F0011241FBECFE5D8E0DEBFCDBF1A
:1000600010E0A0E6B0E0E4E4FCE002C005900D92F0
:10007000A039B107D9F70E941C010C9420060C94FA
:100080000000939A000093980895CF93C82F82B3ED
:100090008F709C2F907F892B82BB91980E9441008A
:1000A00032E43A95F1F700C082B3282F2F7030E187
:1000B000C39FC0011124822B82BB0E94410083EFA9
:1000C00091E00197F1F700C00000CF9108958FEF04
:1000D00081BB81BB82B3847082BB85EA9EE00197BD
:1000E000F1F700C0000082E00E94450088E20E9413
:1000F00045008CE00E94450086E00E94450081E0BA
:100100000E94450083EF91E00197F1F700C00000E5
:100110000895CF93C82F82B38F709C2F907F892B27
:1001200082BB919A0E94410032E43A95F1F700C0F7
:1001300082B3282F2F7030E1C39FC0011124822B7E
:1001400082BB0E94410083EC99E00197F1F700C067
:100150000000CF910895CF93DF93EC01888188232D
:1001600031F021960E94890089918111FBCFDF91A6
:10017000CF9108950F931F93CF93DF93C62F8130B4
:10018000A1F4603118F480E80E944500D0E01C160C
:100190001D0604F500E010E084E10E9445000F5FB9
:1001A0001F4F0C171D07C1F715C0823099F460323C
:1001B00018F480EC0E944500D0E01C161D0654F493
:1001C00000E010E084E10E9445000F5F1F4F0C1714
:1001D0001D07C1F7DF91CF911F910F9108950F93E4
:1001E0001F93CF93DF93CDB7DEB727970FB6F89461
:1001F000DEBF0FBECDBF9F938F9380E690E09F93AD
:100200008F938E010F5F1F4F1F930F930E94360332
:10021000C8010E94AB000F900F900F900F900F90AD
:100220000F9027960FB6F894DEBF0FBECDBFDF91BB
:10023000CF911F910F91089567E070E081E090E009
:100240000E9471010E94670060E081E00E94BA0094
:100250008FE690E00E94AB0060E082E00E94BA006E
:100260008FE790E00E94AB006CE081E00E94BA0052
:1002700087E00E948801EC010E94EF00C83ED34055
:1002800038F46FE081E00E94BA0080E20E948900A9
:100290006CE082E00E94BA0087E00E948801BC0105
:1002A00080E090E00E943B0220E030EC4FE754E415
:1002B0000E949A0120E030E048EC52E40E94C9021A
:1002C0000E940C02EB01CB010E94EF00C436D10565
:1002D00058F66EE082E00E94BA0080E20E94890037
:1002E000C3CF1ABA813039F018F0823039F008C023
:1002F0003E983F9805C03E9A3F9802C03E9A3F9A6A
:1003000086B1887F86B986B1682B66B9379A089519
:1003100097B1892B87B9369A349BFECF83E08A95B3
:10032000F1F7000024B185B190E0982F8827820F63
:10033000911D08950E94AE010C948F020E948802C4
:1003400058F00E94810240F029F45F3F29F00C949C
:10035000780251110C94C3020C947E020E94A002F8
:1003600068F39923B1F3552391F3951B550BBB27E4
:10037000AA2762177307840738F09F5F5F4F220F29
:10038000331F441FAA1FA9F335D00E2E3AF0E0E820
:1003900032D091505040E695001CCAF72BD0FE2F6A
:1003A00029D0660F771F881FBB1F261737074807FE
:1003B000AB07B0E809F0BB0B802DBF01FF279358B6
:1003C0005F4F3AF09E3F510578F00C9478020C9400
:1003D000C3025F3FE4F3983ED4F386957795679523
:1003E000B795F7959F5FC9F7880F911D96958795EB
:1003F00097F90895E1E0660F771F881FBB1F62170A
:1004000073078407BA0720F0621B730B840BBA0BC7
:10041000EE1F88F7E09508950E94A80288F09F5784
:1004200098F0B92F9927B751B0F0E1F0660F771F18
:10043000881F991F1AF0BA95C9F714C0B13091F00E
:100440000E94C202B1E008950C94C202672F782F77
:100450008827B85F39F0B93FCCF3869577956795D3
:10046000B395D9F73EF490958095709561957F4F3F
:100470008F4F9F4F0895E89409C097FB3EF49095E5
:100480008095709561957F4F8F4F9F4F9923A9F06D
:10049000F92F96E9BB279395F695879577956795FC
:1004A000B795F111F8CFFAF4BB0F11F460FF1BC040
:1004B0006F5F7F4F8F4F9F4F16C0882311F096E9D3
:1004C00011C0772321F09EE8872F762F05C0662381
:1004D00071F096E8862F70E060E02AF09A95660F3A
:1004E000771F881FDAF7880F9695879597F90895F3
:1004F00097F99F6780E870E060E008959FEF80ECD7
:10050000089500240A941616170618060906089579
:1005100000240A9412161306140605060895092EDF
:100520000394000C11F4882352F0BB0F40F4BF2B4E
:1005300011F460FF04C06F5F7F4F8F4F9F4F08958E
:1005400057FD9058440F551F59F05F3F71F0479584
:10055000880F97FB991F61F09F3F79F08795089569
:10056000121613061406551FF2CF4695F1DF08C088
:10057000161617061806991FF1CF869571056105A5
:1005800008940895E894BB2766277727CB0197F94D
:1005900008950E94DC020C948F020E94810238F0C0
:1005A0000E94880220F0952311F00C9478020C949C
:1005B0007E0211240C94C3020E94A00270F3959F46
:1005C000C1F3950F50E0551F629FF001729FBB274A
:1005D000F00DB11D639FAA27F00DB11DAA1F649FE6
:1005E0006627B00DA11D661F829F2227B00DA11D99
:1005F000621F739FB00DA11D621F839FA00D611D1F
:10060000221F749F3327A00D611D231F849F600D3F
:10061000211D822F762F6A2F11249F5750409AF068
:10062000F1F088234AF0EE0FFF1FBB1F661F771FF4
:10063000881F91505040A9F79E3F510580F00C94BF
:1006400078020C94C3025F3FE4F3983ED4F386959E
:1006500077956795B795F795E7959F5FC1F7FE2B5F
:10066000880F911D9695879597F90895AEE0B0E0B3
:10067000ECE3F3E00C94F7050D891E8986E08C838A
:100680001A8309838FEF9FE79E838D83AE01475EB8
:100690005F4F6F89788DCE0101960E945803EF81DC
:1006A000F885E00FF11F10822E96E4E00C941306FB
:1006B000ABE0B0E0EEE5F3E00C94E9056C017B0102
:1006C0008A01FC0117821682838181FFCCC1CE0191
:1006D00001963C01F6019381F70193FD859193FF0B
:1006E00081917F01882309F4BAC1853239F493FDE1
:1006F000859193FF81917F01853229F4B60190E0C5
:100700000E944F05E7CF912C212C312CFFE1F315EE
:10071000D8F08B3279F038F4803279F08332A1F45A
:10072000232D20611DC08D3261F0803369F4232DAB
:10073000216016C0832D8260382EE32DE4603E2EAA
:100740002AC0F32DF8601DC037FC2DC020ED280F06
:100750002A3040F08E32B9F436FC81C1232D20645A
:10076000322E19C036FE06C08AE0989E200D112454
:10077000922E11C0EAE02E9E200D1124222EF32D80
:10078000F0623F2E08C08C3621F4832D8068382E0D
:1007900002C0883641F4F70193FD859193FF819162
:1007A0007F018111B3CF982F9F7D9554933028F40A
:1007B0000C5F1F4F9FE399830DC0833631F0833761
:1007C00071F0833509F059C021C0F8018081898317
:1007D0000E5F1F4F88248394912C530113C028016E
:1007E000F2E04F0E511CF801A080B18036FE03C02C
:1007F000692D70E002C06FEF7FEFC5010E944405D4
:100800004C018201F32DFF773F2E16C0280122E014
:10081000420E511CF801A080B18036FE03C0692D44
:1008200070E002C06FEF7FEFC5010E9439054C01F7
:10083000F32DF0683F2E820133FC1BC0822D90E027
:1008400088169906B0F4B60180E290E00E944F0548
:100850002A94F4CFF50137FC859137FE81915F0131
:10086000B60190E00E944F0521102A9421E0821ADF
:1008700091088114910471F7E8C0843611F089362B
:1008800041F5F80137FE07C0608171818281938153
:100890000C5F1F4F08C060817181072E000C880B10
:1008A000990B0E5F1F4FF32DFF763F2E97FF09C068
:1008B00090958095709561957F4F8F4F9F4FF06811
:1008C0003F2E2AE030E0A3010E948B05882E861877
:1008D00045C0853731F4232D2F7EB22E2AE030E03B
:1008E00025C0932D997FB92E8F36C1F018F4883525
:1008F00079F0B5C0803719F0883721F0B0C0E92F02
:10090000E061BE2EB4FE0DC0FB2DF460BF2E09C009
:1009100034FE0AC0292F2660B22E06C028E030E03F
:1009200005C020E130E002C020E132E0F801B7FE6E
:1009300007C060817181828193810C5F1F4F06C067
:100940006081718180E090E00E5F1F4FA3010E94E3
:100950008B05882E8618FB2DFF773F2E36FE0DC0A7
:10096000232D2E7FA22E891458F434FE0BC032FCA6
:1009700009C0832D8E7EA82E05C0B82CA32C03C0E1
:10098000B82C01C0B92CA4FE0FC0FE01E80DF11D6A
:100990008081803321F49A2D997EA92E09C0A2FE70
:1009A00006C0B394B39404C08A2D867809F0B3943A
:1009B000A3FC11C0A0FE06C0B21488F4280C922C2F
:1009C0009B180EC0B21460F4B60180E290E00E9461
:1009D0004F05B394F7CFB21418F42B1802C0982C1B
:1009E000212CA4FE10C0B60180E390E00E944F05C8
:1009F000A2FE17C0A1FC03C088E790E002C088E512
:100A000090E0B6010CC08A2D867859F0A1FE02C094
:100A10008BE201C080E2A7FC8DE2B60190E00E946B
:100A20004F05891438F4B60180E390E00E944F0529
:100A30009A94F7CF8A94F301E80DF11D8081B601F5
:100A400090E00E944F058110F5CF222009F442CE9C
:100A5000B60180E290E00E944F052A94F6CFF6019D
:100A60008681978102C08FEF9FEF2B96E2E10C9475
:100A70000506FC010590615070400110D8F7809583
:100A800090958E0F9F1F0895FC016150704001905A
:100A90000110D8F7809590958E0F9F1F08950F93A2
:100AA0001F93CF93DF93FB01238121FD03C08FEFC1
:100AB0009FEF2CC022FF16C04681578124813581CB
:100AC0004217530744F4A081B1819D012F5F3F4F2E
:100AD000318320838C93268137812F5F3F4F37836B
:100AE000268314C08B01EC01FB010084F185E02D0D
:100AF0000995892BE1F6D80116968D919C9117974F
:100B0000019617969C938E931697CE01DF91CF9105
:100B10001F910F910895FA01AA27283051F1203131
:100B200081F1E8946F936E7F6E5F7F4F8F4F9F4F81
:100B3000AF4FB1E03ED0B4E03CD0670F781F891FC3
:100B40009A1FA11D680F791F8A1F911DA11D6A0F91
:100B5000711D811D911DA11D20D009F468943F9144
:100B60002AE0269F11243019305D3193DEF6CF0143
:100B70000895462F4770405D4193B3E00FD0C9F709
:100B8000F6CF462F4F70405D4A3318F0495D31FD76
:100B90004052419302D0A9F7EACFB4E0A6959795C9
:100BA000879577956795BA95C9F70097610571059F
:100BB00008959B01AC010A2E0694579547953795E9
:100BC0002795BA95C9F7620F731F841F951FA01D43
:100BD00008952F923F924F925F926F927F928F92E1
:100BE0009F92AF92BF92CF92DF92EF92FF920F93BC
:100BF0001F93CF93DF93CDB7DEB7CA1BDB0B0FB6C6
:100C0000F894DEBF0FBECDBF09942A883988488882
:100C10005F846E847D848C849B84AA84B984C88418
:100C2000DF80EE80FD800C811B81AA81B981CE0F0F
:100C3000D11D0FB6F894DEBF0FBECDBFED010895F4
:040C4000F894FFCF56
:100C44002564002D00257325642E2530346400416D
:100C540044432076616C7565203A202020200050A2
:100C640072652076616C7565203A2020202025006D
:00000001FF
