:020000040800F2
:100000000028002055030008A5030008A5030008E8
:10001000A5030008A5030008A503000800000000D0
:10002000000000000000000000000000A503000820
:10003000A503000800000000A5030008A5030008B0
:10004000A5030008A5030008A5030008A5030008F0
:10005000A5030008A5030008A9030008CD030008B4
:10006000F10300081504000839040008A50300087E
:10007000A5030008A5030008A5030008A5030008C0
:10008000A5030008A5030008A5030008A5030008B0
:10009000A5030008A5030008A50300085D040008E7
:1000A000A5030008A5030008A5030008A503000890
:1000B000A5030008A5030008A5030008950E000885
:1000C0007D0F0008890F0008950F00082D1000080B
:1000D00089100008E5100008F91000080D1100084B
:1000E00005050008A503000800000000A50300089E
:1000F000A5030008A5030008A5030008A503000840
:10010000A5030008A5030008A5030008A50300082F
:10011000A5030008A5030008A5030008A50300081F
:10012000A5030008A5030008A5030008A50300080F
:1001300010B5054C237833B9044B13B10448AFF321
:1001400000800123237010BD00000020000000008B
:100150006811000808B5034B1BB103490348AFF30E
:10016000008008BD000000000400002068110008A5
:1001700080B588B000AF4023BB614FF480637B61E2
:10018000094B3B600023BB6000237B600023FB61C5
:10019000064800F003FC3B461946044800F0F6FA16
:1001A00000BF2037BD4680BDA0860100005400403E
:1001B00080B5C8B002AF07F10C03186007F108035F
:1001C0001960FB1D1A70002387F8173107F10C0323
:1001D0001B681B0ADAB207F114031A7007F10C034B
:1001E0001B68DAB207F114035A70022387F817313B
:1001F00011E097F81731023B07F1080212681A4420
:1002000097F81731117807F11402D15497F8173184
:10021000013387F8173197F81721FB1D1B7802333C
:100220009A42E6DBFB1D1B780233194607F11402E4
:1002300000230193002300930B462A21044800F079
:10024000F1FB0023184607F58C77BD4680BD00BF43
:100250000054004080B588B002AFF860B960134622
:10026000FB710023FB75FB681B0ADBB23B75FB6867
:10027000DBB27B7507F11402002301930123009385
:1002800002232A21094800F0CDFBFA7901230193CA
:10029000002300931346BA682A21044800F020FC8A
:1002A000002318461837BD4680BD00BF00540040EB
:1002B00080B400AF074B9B69064A43F00403936187
:1002C000044B9B69034A43F00803936100BFBD469A
:1002D00080BC70470010024080B584B000AFFFF7CB
:1002E000E7FF1B4A07F1080392E803001860043394
:1002F000198002330A0C1A703B4600221A60C3F8B8
:100300000320FFF735FF07F1080307221946AF2046
:10031000FFF74EFF3B4607221946AF20FFF79AFF33
:100320000A233B720B237B720C23BB720D23FB72DF
:1003300007F108030422194640F6FF70FFF738FF63
:100340003B460422194640F6FF70FFF783FFFEE7A5
:10035000801100080D488546AFF300800C480D4918
:100360000D4A002302E0D458C4500433C4188C4210
:10037000F9D30A4A0A4C002301E013600432A24276
:10038000FBD300F0CDFEFFF7A7FFFEE7002800201B
:100390000000002000000020A8110008000000203C
:1003A000A4000020FEE7000080B500AF054B5B69AC
:1003B000044A43F001035361034B1B68984700BF95
:1003C00080BD00BF000401406800002080B500AF80
:1003D000054B5B69044A43F002035361034B5B68BE
:1003E000984700BF80BD00BF0004014068000020A6
:1003F00080B500AF054B5B69044A43F004035361C9
:10040000034B9B68984700BF80BD00BF00040140BC
:100410006800002080B500AF054B5B69044A43F0DB
:1004200008035361034BDB68984700BF80BD00BFE2
:10043000000401406800002080B500AF054B5B69F7
:10044000044A43F010035361034B1B69984700BFF4
:1004500080BD00BF000401406800002080B500AFEF
:10046000264B5B6903F02003002B08D0234B5B690C
:10047000224A43F020035361214B5B6998471F4B8D
:100480005B6903F04003002B08D01C4B5B691B4ADF
:1004900043F0400353611A4B9B699847174B5B69C4
:1004A00003F08003002B08D0144B5B69134A43F020
:1004B00080035361124BDB699847104B5B6903F46F
:1004C0008073002B08D00D4B5B690C4A43F480739A
:1004D00053610B4B1B6A9847084B5B6903F400732D
:1004E000002B08D0054B5B69044A43F40073536149
:1004F000034B5B6A984700BF80BD00BF000401400A
:100500006800002080B500AF2D4B5B6903F4806369
:10051000002B08D02A4B5B69294A43F4806353615E
:10052000284B9B6A9847264B5B6903F40063002BBA
:1005300008D0234B5B69224A43F400635361214B8B
:10054000DB6A98471E4B5B6903F48053002B08D08D
:100550001B4B5B691A4A43F480535361194B1B6B65
:100560009847174B5B6903F40053002B08D0144BDA
:100570005B69134A43F400535361124B5B6B98471A
:100580000F4B5B6903F48043002B08D00C4B5B6975
:100590000B4A43F4804353610A4B9B6B9847084BCB
:1005A0005B6903F40043002B08D0054B5B69044AE8
:1005B00043F400435361034BDB6B984700BF80BD9E
:1005C000000401406800002080B483B000AF0346FF
:1005D000FB80FB88802B42D0802B11DC082B36D08F
:1005E000082B06DC022B2ED0042B2ED0012B28D07A
:1005F00047E0202B2FD0402B2FD0102B29D040E0CC
:10060000B3F5006F33D0B3F5006F09DCB3F5007FAD
:1006100029D0B3F5806F28D0B3F5807F21D030E0AA
:10062000B3F5005F27D0B3F5005F03DCB3F5805F5F
:100630001FD026E0B3F5804F1FD0B3F5004F1ED07A
:100640001FE000231EE004231CE008231AE00C2313
:1006500018E0102316E0142314E0182312E01C23E2
:1006600010E000230EE004230CE008230AE00C2332
:1006700008E0102306E0142304E0182302E01C2302
:1006800000E0002318460C37BD4680BC704790B58B
:1006900085B000AF786039600023BB600023FB7336
:1006A0003B681B88FF2B01D87B6801E07B68043323
:1006B000BB603B681B881846FFF786FF03461A4657
:1006C0000F239340DA43BB681B681A40BB681A606B
:1006D0003B689B78072B0BD03B689B78062B07D099
:1006E0003B689B78052B03D03B689B78042B0ED18D
:1006F0003B689B78043B9B005AB23B68DB785BB25B
:1007000013435BB2DBB203F00F03FB732CE03B68D7
:100710009B78012B03D03B689B78002B07D13B686B
:100720009B789B00DBB203F00F03FB731CE03B687C
:100730009B78082B02D10423FB7315E00823FB737D
:100740003B689B78022B07D17B68DB683A6812888C
:100750001A437B68DA6007E07B68DB683A681288D6
:10076000D2431A407B68DA60FC7B3B681B881846E2
:10077000FFF72AFF034604FA03F2BB681B681A431B
:10078000BB681A6000BF1437BD4690BDB0B586B0D7
:1007900000AF786039600023FB820023BB82774B77
:1007A0003B610023FB817B68754A934210D1754AF7
:1007B0003B6814461D460FCD0FC495E80F0084E832
:1007C0000F00714BDB69704A43F40013D36110E0F2
:1007D0006C4B3A6803F1200415460FCD0FC495E821
:1007E0000F0084E80F00684BDB69674A43F480031D
:1007F000D3613B689B68002B40F088807B685B6816
:10080000FB82FB8A23F03F03FB8200F0FBFB386195
:100810003B695E4AA2FB03239B0CBB82FA8ABB8A1C
:100820001343FB82FA8A7B685A607B681B6823F05B
:1008300001027B681A600023FB823B681B684CF254
:100840005032934204D03B681B68514A934219D1FD
:100850003B681B685B003A69B2FBF3F3FB81FA8AE1
:10086000FB891343FB82FA8A7B68DA610023FB82EF
:10087000BB8A0133FB81FA8AFB891343FB82FA8A24
:100880007B681A620023FB827B681B68FB823B68E3
:100890005B699AB23B689B699BB213439AB23B680F
:1008A0009B689BB213439AB23B685B689BB213434D
:1008B0009AB2FB8A1343FB82FA8A7B681A60002390
:1008C000FB823B689B89012B0DD10123FB823B6896
:1008D0001B8A5B001AB2B7F9163013431BB2FB82B6
:1008E000FA8A7B68DA600023FB823B68DB895B0065
:1008F0001AB2B7F9163013431BB2FB823B685A8A0F
:10090000FB8A1343FB82FA8A7B689A603B68DB6947
:10091000002B28D07B685B6843F4E0627B685A60F8
:100920007B68174A93420CD11A4B1B68194A43F053
:1009300000431360184B1B68174A43F00103136010
:100940000BE0154B1B68144A43F002031360124B73
:100950001B68114A43F0040313607B6800225A614C
:100960007B6800229A617B681B6843F001027B6808
:100970001A6000BF1837BD46B0BD00BF00127A0034
:10098000005400401C0000200010024083DE1B4386
:10099000A086010000E100E004E100E080B584B041
:1009A00000AF78607B681D4A934218D14023BB8119
:1009B0000723BB730123FB7307F10C031946184887
:1009C000FFF765FE8023BB810723BB730123FB7305
:1009D00007F10C0319461248FFF759FE19E04FF4CE
:1009E0008063BB810723BB730123FB7307F10C03F7
:1009F00019460B48FFF74BFE4FF40063BB810723FA
:100A0000BB730123FB7307F10C0319460448FFF77E
:100A10003EFE00BF1037BD4680BD00BF0054004001
:100A2000000C014080B586B000AFF8607A603B6092
:100A30000B467B8100237B6197F824301A46012105
:100A4000F86800F0BDF800BF0121F86800F0E0F898
:100A50000346002BF8D07B8900221946F86800F085
:100A60005FF900BF0221F86800F0D2F80346002BBE
:100A7000F8D000BF1949F86800F0CAF80346002B07
:100A8000F8D000237B6111E07B697A6813441B78FE
:100A90001A46FB681A6100BF0321F86800F0B8F835
:100AA0000346002BF8D07B6901337B617B693A6890
:100AB0009A42E9D800BF0521F86800F0A9F803467A
:100AC000002BF8D097F82030002B03D10121F868D3
:100AD00000F045F900BF1837BD4680BD8000070013
:100AE00080B586B000AFF8607A603B600B467B81D2
:100AF000FB68314A934214BF01230023DBB2FB742D
:100B000000237B6197F824301A460121F86800F031
:100B100057F800BF0121F86800F07AF80346002B6F
:100B2000F8D07B8901221946F86800F0F9F800BF77
:100B30000221F86800F06CF80346002BF8D0012180
:100B4000F86800F027F93B68002B1CD03B687B61FC
:100B500012E000BF0621F86800F05AF80346002BA7
:100B6000F8D0FB681B69DAB27B681A707B680133C6
:100B70007B607B69013B7B617B69012BE9DC0021A8
:100B8000F86800F007F997F82030002B03D1012115
:100B9000F86800F0E4F8FB7C084A5B011344143366
:100BA0001B68B3F5806F03D10121F86800F0F2F8FB
:100BB00000BF1837BD4680BD005400401C00002017
:100BC00080B582B000AF78600B46FB701346BB70F7
:100BD000BB78012B07D000BF0021786800F018F81F
:100BE0000346002BF8D1FB78002B06D07B681B68EE
:100BF00043F480727B681A6005E07B681B6823F40D
:100C000080727B681A6000BF0837BD4680BD000057
:100C100080B489B000AF786039600023FB7700238F
:100C2000BB6100237B6100233B613B68042B06D83A
:100C3000032B30D2012B16D0012B20D807E0062B36
:100C400041D0062B33D3354A934248D05FE07B68CE
:100C50009B6903F00203002B02D00123FB7756E0CF
:100C60000023FB7753E07B685B6903F00103002BF3
:100C700002D00123FB774AE00023FB7747E07B6843
:100C80005B6903F00203002B02D00123FB773EE0F7
:100C90000023FB773BE07B685B6903F08003002B5C
:100CA00002D00123FB7732E00023FB772FE07B6843
:100CB0005B6903F00403002B02D00123FB7726E0DD
:100CC0000023FB7723E07B685B6903F04003002B84
:100CD00002D00123FB771AE00023FB7717E07B6843
:100CE0005B69BB617B689B697B617B691B047B6182
:100CF000BA697B6913433B613A69084B1340074A61
:100D0000934202D10123FB7701E00023FB77FB7FB5
:100D100018462437BD4680BC704700BF80000700DE
:100D200080B483B000AF78600B467B8013467B7045
:100D30007B885B007B807B78002B04D07B8843F032
:100D400001037B8003E07B8823F001037B807A88AA
:100D50007B681A6100BF0C37BD4680BC704780B409
:100D600083B000AF78600B46FB70FB78002B06D099
:100D70007B681B6843F400727B681A6005E07B683F
:100D80001B6823F400727B681A6000BF0C37BD46F5
:100D900080BC704780B483B000AF78600B46FB70B6
:100DA000FB78002B06D07B681B6843F480627B686D
:100DB0001A6005E07B681B6823F480627B681A6018
:100DC00000BF0C37BD4680BC7047000080B584B0C2
:100DD00000AF78600B46FB707B682C4A934214BFCF
:100DE00001230023DBB2FB73FB78042B4AD801A25A
:100DF00052F823F00F0E0008090E00082D0E00080F
:100E00003F0E00085D0E00087B689B693AE07B6836
:100E10009B6903F00403002B2FD0FB7B1C4A5B0172
:100E200013441C331B680020984726E0FB7B184ABC
:100E30005B0113441C331B680220984722E07B6847
:100E40009B6903F00403002B19D0FB7B104A5B0164
:100E500013441C331B680320984710E07B689B6990
:100E600003F00403002B0CD1FB7B094A5B01134404
:100E70001C331B680420984703E000BF02E000BF5A
:100E800000E000BF00BF1037BD4680BD00540040E9
:100E90001C00002080B584B000AF0023FB60364BFF
:100EA0005B6803F40073BB60334B5B6803F48063DF
:100EB0007B60314B5B6903F010033B60BB68002B28
:100EC0000AD03B68002B07D02B4B2B4A1B681360C2
:100ED00000212948FFF77AFF274B5B6903F00203E3
:100EE0003B60BB68002B12D03B68002B0FD0224B1D
:100EF0009B6903F00103002B09D11F4B5B69FB6069
:100F00001D4B9B69FB6002211B48FFF75FFF1A4BDB
:100F10005B6903F080033B60BB68002B0FD07B68EC
:100F2000002B0CD03B68002B09D0134B9B6903F0BE
:100F30000103002B03D103210F48FFF747FF0E4B9E
:100F40005B6903F040033B60BB68002B0FD07B68FC
:100F5000002B0CD03B68002B09D0074B9B6903F09A
:100F60000103002B03D104210348FFF72FFF00BF2B
:100F70001037BD4680BD00BF0054004080B400AFB4
:100F800000BFBD4680BC704780B400AF00BFBD4607
:100F900080BC704780B400AF00BFBD4680BC7047C6
:100FA00080B400AF0A4B5B689B0803F00303012B7E
:100FB00006D0012B02D3022B04D005E0054B03E041
:100FC000054B01E0044BFFE71846BD4680BC704767
:100FD0000010024000127A000024F40080B500AF37
:100FE000FFF7DEFF0146054B5B681B0903F00F03AB
:100FF000034AD35C21FA03F3184680BD0010024077
:101000009011000880B500AFFFF7E8FF0146054BDF
:101010005B681B0A03F00703034AD35C21FA03F35E
:10102000184680BD001002408811000880B582B0CB
:1010300000AF134B9B685B0803F00103DAB23B7906
:1010400062F300033B710E4B9B6803F00103DAB2BD
:101050003B7962F341033B71094B9B681B0903F029
:101060000103DAB23B7962F382033B71054B1B68E3
:101070005B693879984700BF0837BD4680BD00BF1F
:10108000003001405C00002080B582B000AF134BFF
:101090009B685B0803F00103DAB23B7962F300035B
:1010A0003B710E4B9B6803F00103DAB23B7962F3AC
:1010B00041033B71094B9B681B0903F00103DAB242
:1010C0003B7962F382033B71054B5B685B6938795E
:1010D000984700BF0837BD4680BD00BF00380040BC
:1010E0005C00002080B500AF024B1B681B6998476D
:1010F00000BF80BD6400002080B500AF024B1B68BC
:101100001B69984700BF80BD6400002080B500AF18
:10111000024B1B681B69984700BF80BD640000201C
:1011200070B500250C4E0D4CA41BA410A54209D18E
:1011300000F01AF800250A4E0A4CA41BA410A54280
:1011400005D170BD56F8253098470135EEE756F8C1
:10115000253098470135F2E7A0110008A0110008DA
:10116000A0110008A4110008F8B500BFF8BC08BC25
:101170009E467047F8B500BFF8BC08BC9E46704755
:101180000102030405060700000000000102030439
:101190000000000000000000010203040607080927
:0411A00055010008ED
:0411A400310100080D
:040000050800035597
:00000001FF
